:100000000C9462000C948A000C948A000C948A0070
:100010000C948A000C948A000C948A000C948A0038
:100020000C948A000C948A000C948A000C948A0028
:100030000C948A000C948A000C948A000C948A0018
:100040000C945C070C948A000C94CC070C94A607C3
:100050000C948A000C948A000C948A000C948A00F8
:100060000C94FE070C948A00000000002400270076
:100070002A0000000000250028002B0000000008D6
:10008000000201000003040700000000000000005F
:1000900000000000230026002900040404040404D6
:1000A0000404020202020202030303030303010227
:1000B00004081020408001020408102001020408F6
:1000C00010201D0911241FBECFEFD8E0DEBFCDBF29
:1000D00011E0A0E0B1E0ECECFCE102C005900D9273
:1000E000A83AB107D9F723E0A8EAB1E001C01D9210
:1000F000A333B207E1F710E0C2E6D0E004C02197D5
:10010000FE010E945E0EC136D107C9F70E94850923
:100110000C94640E0C940000CF92DF92EF92FF9249
:10012000CF93DF93B0912703A0E08111AB2F809193
:10013000280390E0880F991FAC0140575F4FC09093
:100140002D03D0902E03E0902F03F090300330E089
:1001500020E0FA01C591D491E881B90190E080E0F6
:10016000EB23EA130AC02F5F3F4F6C157D058E0508
:100170009F0578F36FEF7FEFCB01DF91CF91FF9079
:10018000EF90DF90CF90089590E0FC01E458FF4F8E
:100190002491FC01E255FF4F3491FC01E656FF4FDC
:1001A000E491EE23C9F0222339F0233001F1A8F4C1
:1001B000213019F1223029F1F0E0EE0FFF1FEE5847
:1001C000FF4FA591B4918FB7F894EC91611126C0BF
:1001D00030953E233C938FBF08952730A9F02830F7
:1001E000C9F0243049F7809180008F7D03C0809151
:1001F00080008F7780938000DFCF84B58F7784BDB8
:10020000DBCF84B58F7DFBCF8091B0008F7780935B
:10021000B000D2CF8091B0008F7DF9CF3E2BDACFE6
:10022000CF93DF9390E0FC01E255FF4F2491865677
:100230009F4FFC0184918823D1F090E0880F991F93
:10024000FC01E859FF4FA591B491FC01EE58FF4F16
:10025000C591D491623071F49FB7F8943C91822F8C
:10026000809583238C93E8812E2B28839FBFDF9179
:10027000CF9108958FB7F894EC912E2B2C938FBFCC
:10028000F6CF3FB7F8948091630290916402A091F9
:100290006502B091660226B5A89B05C02F3F19F0F4
:1002A0000196A11DB11D3FBFBA2FA92F982F8827F6
:1002B000BC01CD01620F711D811D911D42E0660FD1
:1002C000771F881F991F4A95D1F708958F929F92A3
:1002D000AF92BF92CF92DF92EF92FF924B015C01FF
:1002E0000E9441016B017C010E9441016C197D0952
:1002F0008E099F09683E734081059105A8F321E0AE
:10030000821A9108A108B10888EEC80E83E0D81EB1
:10031000E11CF11C81149104A104B10429F7FF90A0
:10032000EF90DF90CF90BF90AF909F908F90089507
:10033000CF92DF92EF92FF920F931F93CF93DF93B1
:10034000CDB7DEB7C054D1400FB6F894DEBF0FBEB4
:10035000CDBF2FB7F8948091670290916802A09169
:100360006902B0916A022FBF4091290350912A037C
:1003700060912B0370912C038C019D01041B150BC4
:10038000260B370BB901A801403D574061057105A7
:1003900090F480913103C05CDE4F0FB6F894DEBF5D
:1003A0000FBECDBFDF91CF911F910F91FF90EF90C6
:1003B000DF90CF9008958093290390932A03A09310
:1003C0002B03B0932C03109224031092230310925A
:1003D0002203109221031092200362E080912503F2
:1003E0000E94100161E070E080E090E00E946601F0
:1003F00061E0809125030E94100160E08091250357
:100400000E94C400809126038551823020F58BE242
:1004100091E10197F1F762E0809125030E941001BC
:100420008091320390E08230910538F0880F991F57
:10043000880F991F05970197F1F7F89480E00E94C3
:100440008C006F3F7F4F8F4F9F4F61F410923103AD
:10045000789480E0A0CF64E170E080E090E00E94BA
:100460006601D9CF81E00E948C006F3F7F4F8F4F94
:100470009F4F61F38E010F5F1F4F6E018FEBC81A04
:100480008EEFD80A780180E00E948C00F70160832B
:1004900071838283938381E00E948C00F7016483DF
:1004A000758386839783F8E0EF0EF11CEC14FD044E
:1004B00051F7789430E020E0F801C080D180E280EC
:1004C000F3804481558166817781FFEFCF16DF0687
:1004D000EF06FF0631F04F3F8FEF580768077807A8
:1004E00019F410923103B5CFF90183E0F595E79542
:1004F0008A95E1F7E05EFC4F8081880FC416D5062F
:10050000E606F70610F180832F5F3F4F085F1F4F0D
:100510002832310589F640912403209120038091EF
:100520002103280F3327331F80912203280F311D09
:1005300080912303820F932F911D99274817190645
:1005400081F681E08093310326CF8160DCCF08956E
:100550000895AF92BF92CF92DF92EF92FF920F93E6
:100560001F93CF93DF936C017B018B01040F151F49
:10057000EB015E01AE18BF08C017D10759F06991B1
:10058000D601ED91FC910190F081E02DC601099515
:10059000892B79F7C501DF91CF911F910F91FF90C2
:1005A000EF90DF90CF90BF90AF900895FC01538DF6
:1005B000448D252F30E0842F90E0821B930B54173D
:1005C00010F0CF96089501970895FC01918D828DCA
:1005D000981761F0A28DAE0FBF2FB11D5D968C9163
:1005E000928D9F5F9F73928F90E008958FEF9FEFA2
:1005F0000895FC01918D828D981731F0828DE80F5E
:10060000F11D858D90E008958FEF9FEF0895FC0117
:10061000918D228D892F90E0805C9F4F821B9109E4
:100620008F73992708958BE692E00E94070321E0DB
:10063000892B09F420E0822F089580E090E0892B37
:1006400029F00E94130381110C9400000895FC010D
:10065000A48DA80FB92FB11DA35ABF4F2C91848D23
:1006600090E001968F739927848FA689B7892C9380
:10067000A089B1898C91837080648C93938D848DD3
:10068000981306C00288F389E02D80818F7D8083D6
:100690000895EF92FF920F931F93CF93DF93EC0196
:1006A00081E0888F9B8D8C8D98131AC0E889F98919
:1006B000808185FF15C09FB7F894EE89FF8960831C
:1006C000E889F98980818370806480839FBF81E09D
:1006D00090E0DF91CF911F910F91FF90EF900895DF
:1006E000F62E0B8D10E00F5F1F4F0F731127E02EBA
:1006F0008C8D8E110CC00FB607FCFACFE889F989F2
:10070000808185FFF5CFCE010E942703F1CFEB8DCD
:10071000EC0FFD2FF11DE35AFF4FF0829FB7F894C5
:100720000B8FEA89FB8980818062CFCFCF93DF93E3
:10073000EC01888D8823B9F0AA89BB89E889F989F9
:100740008C9185FD03C0808186FD0DC00FB607FC2E
:10075000F7CF8C9185FFF2CF808185FFEDCFCE0161
:100760000E942703E9CFDF91CF910895089520914A
:10077000E901260F3327331F21323105ECF4209194
:100780003202FC0190E080E0243069F082E00895BC
:10079000A091E9012191AC0147535E4FA40FB52F01
:1007A000B11D2C930196861798F38091E901680F8B
:1007B0006093E90180E0089581E00895109232028B
:1007C00081E08093310210920C0261E082E10E948C
:1007D000C40061E083E10E94C400E9EBF0E08081A5
:1007E0008E7F808380818D7F808388E48093B800B2
:1007F00085E48093BC000895CF93DF9391E09093BC
:10080000C8018823B9F0C091B800D091BA00809196
:10081000BC008A7B8093BC0060E082E10E94C4003F
:1008200060E083E10E94C4000E94DE03D093BA001E
:10083000C093B800DF91CF9108950895E0916102CF
:1008400080916002E81730F4F0E0E855FE4F8081B7
:1008500090E008958FEF9FEF08959091610280914D
:1008600060022FEF3FEF981748F4E92FF0E0E855CA
:10087000FE4F208130E09F5F90936102C90108958F
:100880008091600290916102891B990B0895CF922B
:10089000DF92EF92FF920F931F93CF93DF937C0130
:1008A000CB018A0120913802222389F0EB016B01F0
:1008B000C40ED51ECC15DD0569F06991D701ED9107
:1008C000FC910190F081E02DC7010995F3CF642FD1
:1008D0000E94B703C801DF91CF911F910F91FF9044
:1008E000EF90DF90CF900895CF93DF931F92CDB715
:1008F000DEB76983209138022223F9F020915E024D
:10090000203258F021E030E0FC013383228390E074
:1009100080E00F90DF91CF91089580915F02E82FE2
:10092000F0E0E75CFD4F998190838F5F80935F02D9
:1009300080935E0281E090E0ECCF61E0CE01019611
:100940000E94B703F7CFCF92DF92EF92FF920F93FF
:100950001F93CF93DF93FC01C48121E020933802E1
:10096000C093590210925F0210925E028385682B39
:1009700088E093E00E947404D0915E02D13208F0C6
:1009800092C00E9441016B017C0180913202811171
:1009900065C082E08093320281E0809331028FEF64
:1009A0008093300210922F02D0932E02A9E3B2E07E
:1009B000EEE0F2E080E0D81385C010920D02809145
:1009C0000D02CC0FC82BC0930D0280910C02813018
:1009D00009F07CC010920C020E9441016B017C0165
:1009E00080910D028093BB0080913402909135027A
:1009F000A0913602B0913702892B8A2B8B2B99F06C
:100A00000E9441010091340210913502209136027A
:100A1000309137026C197D098E099F090617170757
:100A200028073907E0F18091BC0083FDD9CF85EC20
:100A30008093BC000E9441016B017C0180913202D5
:100A4000823009F445C0809130028F3F61F180917E
:100A50003002803241F18091300225C08091340211
:100A600090913502A0913602B0913702892B8A2BE2
:100A70008B2B09F48ACF0E9441010091340210911E
:100A8000350220913602309137026C197D098E09AA
:100A90009F09061717072807390708F076CF8091B6
:100AA00033020E94FC0310925F0210925E021092C9
:100AB0003802DF91CF911F910F91FF90EF90DF905F
:100AC000CF9008959D9191938F5F75CF85EEB0CFB4
:100AD0008091340290913502A0913602B091370294
:100AE000892B8A2B8B2B09F4A9CF0E9441010091FD
:100AF00034021091350220913602309137026C1980
:100B00007D098E099F09061717072807390708F07E
:100B100095CFC5CF90E080E00895FC0101900020C2
:100B2000E9F73197AF01481B590BBC0184E193E011
:100B30000C94A9028F929F92AF92BF920F931F9332
:100B4000CF93DF93CDB7DEB7A1970FB6F894DEBF92
:100B50000FBECDBF19A2423008F44AE08E010F5DEE
:100B60001F4F842E912CB12CA12CA50194010E9421
:100B70003C0EE62FB901CA01EA30F4F4E05DD80179
:100B8000EE938D01232B242B252B79F790E080E029
:100B9000109719F0CD010E948D05A1960FB6F8941B
:100BA000DEBF0FBECDBFDF91CF911F910F91BF90E0
:100BB000AF909F908F900895E95CE1CF0F931F93C2
:100BC000CF938C01C62F0E94A3046C2F6460C801D0
:100BD0000E94A3046C2F6B7FC8010E94A30483ECC6
:100BE00090E00197F1F7CF911F910F9108950F9326
:100BF0001F93CF93DF938C01D62FC42F607F642B7C
:100C00000E94DE0580E1D89FB00111246C2BC80141
:100C1000DF91CF911F910F910C94DE05CF93DF935D
:100C2000CDB7DEB728970FB6F894DEBF0FBECDBFA5
:100C300098E0E0E0F1E0DE01119601900D929A95C6
:100C4000E1F790911C03981710F48FEF890F90E053
:100C5000880F991F21E030E02C0F3D1F820F931F5A
:100C6000FC016081606840E084E193E028960FB663
:100C7000F894DEBF0FBECDBFDF91CF910C94F70586
:100C800041E00E94F70581E090E008954F925F9265
:100C90006F927F928F929F92AF92BF92CF92DF928C
:100CA000EF92FF920F931F93CF936B017C01742EF1
:100CB000AC019B010E94370E882399F088E391E0F4
:100CC000CF911F910F91FF90EF90DF90CF90BF9049
:100CD000AF909F908F907F906F905F904F900C940B
:100CE0008D0546015701E894B7F82FEF3FEF4FE726
:100CF0005FE7C501B4010E94370E81110DC02FEFCF
:100D00003FEF4FE75FE7C501B4010E946D0C181675
:100D10001CF48CE391E0D4CF2FEF3FEF4FE75FE47B
:100D2000C701B6010E94C50D18161CF480E491E0BD
:100D3000C7CF2FEF3FEF4FE75FECC701B6010E942F
:100D40006D0C87FDF3CF20E030E0A901C701B601AB
:100D50000E946D0C10E000E087FF0CC041E06DE2E6
:100D600084E193E00E94F705F7FAF094F7F8F09425
:100D700001E010E0C0E060E070E080E09FE37C16FE
:100D800041F020E030E040E251E40E94720CCF5F7D
:100D9000F6CFA70196010E94010C4B015C010E9455
:100DA000E40C2B013C014AE00E949A05080F191F30
:100DB000CC23C9F1C301B2010E94130D9B01AC0108
:100DC000C501B4010E94000C4B015C0141E06EE2E0
:100DD00084E193E00E94F7050F5F1F4FC15018F1A7
:100DE00020E030E040E251E4C501B4010E94CA0DA8
:100DF0002B013C010E94E40C4B01B12CA12C4AE0D8
:100E0000C501B4010E949A05080F191FC501B4015C
:100E10000E94130D9B01AC01C301B2010E94000CA2
:100E20004B015C01DBCFC801CF911F910F91FF9067
:100E3000EF90DF90CF90BF90AF909F908F907F907A
:100E40006F905F904F90089585ED8093BC008091E6
:100E5000340290913502A0913602B0913702079684
:100E6000A11DB11D23E0B695A795979587952A9565
:100E7000D1F72091BC0024FD03C0109232020895E6
:100E800040913402509135026091360270913702E0
:100E9000452B462B472B69F30097A105B10541F07F
:100EA0002AE22A95F1F700C00197A109B109E1CF23
:100EB000809133020C94FC031F920F920FB60F9295
:100EC00011242F933F938F939F93AF93BF93809160
:100ED000670290916802A0916902B0916A02309114
:100EE000620223E0230F2D3758F50196A11DB11D95
:100EF000209362028093670290936802A093690234
:100F0000B0936A028091630290916402A09165029D
:100F1000B09166020196A11DB11D8093630290936A
:100F20006402A0936502B0936602BF91AF919F9156
:100F30008F913F912F910F900FBE0F901F9018959A
:100F400026E8230F0296A11DB11DD2CF1F920F924A
:100F50000FB60F9211242F933F934F935F936F938C
:100F60007F938F939F93AF93BF93EF93FF938BE602
:100F700092E00E942703FF91EF91BF91AF919F9163
:100F80008F917F916F915F914F913F912F910F9032
:100F90000FBE0F901F9018951F920F920FB60F92D1
:100FA00011242F938F939F93EF93FF93E0917B02F4
:100FB000F0917C028081E0918102F091820282FDB9
:100FC0001BC09081809184028F5F8F732091850276
:100FD000821741F0E0918402F0E0E559FD4F958FD2
:100FE00080938402FF91EF919F918F912F910F90A9
:100FF0000FBE0F901F9018958081F4CF1F920F9213
:101000000FB60F9211242F933F934F935F936F93DB
:101010007F938F939F93AF93BF93EF93FF938091B1
:10102000B900887F803609F44AC0F0F5883209F4A7
:10103000A7C018F5803109F49BC0B8F4882309F4DF
:10104000F9C0883009F494C0FF91EF91BF91AF913E
:101050009F918F917F916F915F914F913F912F91D0
:101060000F900FBE0F901F901895883109F488C01B
:10107000803251F78093300214C0803409F49DC04F
:1010800040F48033B9F38833F9F68093300285EC6D
:10109000B0C0803509F485C0883509F496C088341D
:1010A00099F60E942407D0CF883909F48CC038F50E
:1010B000883729F050F4883611F0803729F683E01C
:1010C0008093320210920B0257C0883809F47BC01B
:1010D000803919F0803809F0B7CF80910B02803247
:1010E00008F071C0E0910B0281E08E0F80930B023B
:1010F0008091BB00F0E0E551FE4F80833DC0803B16
:1011000039F0E0F4803A09F479C0883A09F09CCFCC
:1011100084E0809332021092EA011092E901E0919A
:101120005C02F0915D0209958091E90181110FC087
:1011300081E08093E9011092C90109C0803C09F463
:10114000A6CF883C09F4A3CF883B09F07DCFE0917E
:10115000EA0181E08E0F8093EA01F0E0E753FE4F51
:1011600080818093BB009091EA018091E90129C0C0
:1011700080910D028093BB0085EC8093BC0064CF0E
:1011800090912F0280912E02981758F5E0912F022E
:1011900081E08E0F80932F02F0E0E25FFD4F8081AF
:1011A000E9CFE0912F0281E08E0F80932F02809192
:1011B000BB00F0E0E25FFD4F808390912F028091B1
:1011C0002E029817C8F285E8D8CFE0912F0281E06F
:1011D0008E0F80932F028091BB00F0E0E25FFD4F05
:1011E00080838091310281115CCF81E080930C0279
:1011F00084EA8093BC001092320226CF85EC809363
:10120000BC001092320280910B02803230F4E091E7
:101210000B02F0E0E551FE4F108260910B0270E08E
:10122000E0915A02F0915B028BEE91E009951092E9
:101230000B020ACF1092300234CFEBE6F2E01382B9
:10124000128288EE93E0A0E0B0E084839583A683C9
:10125000B7832CE031E03183208325EC30E0358703
:10126000248724EC30E03787268720EC30E0318B70
:10127000208B21EC30E0338B228B22EC30E0358B5D
:10128000248B26EC30E0378B268B118E128E138E3A
:10129000148EE8E0F3E01382128284839583A683A0
:1012A000B7838EE191E091838083A0E2B3E082E096
:1012B00015968C9315978BE016968C931697E0EB0A
:1012C000F0E0E4911796EC931797ECE9F0E0E491E5
:1012D0001896EC93189740E85EE360E070E01D9686
:1012E0004D935D936D937C935097E4E1F3E013820B
:1012F000128280E391E0918380838FE3848384E191
:10130000818784E0828713860895789484B582600B
:1013100084BD84B5816084BD85B5826085BD85B599
:10132000816085BD80916E00816080936E00109217
:101330008100809181008260809381008091810092
:101340008160809381008091800081608093800023
:101350008091B10084608093B1008091B000816081
:101360008093B00080917A00846080937A008091AD
:101370007A00826080937A0080917A008160809305
:101380007A0080917A00806880937A001092C10080
:10139000E0917B02F0917C0282E08083E091770211
:1013A000F09178021082E0917902F0917A028FEC4C
:1013B000808310928302E0917F02F091800286E0A8
:1013C0008083E0917D02F0917E0280818061808344
:1013D000E0917D02F0917E02808188608083E091BF
:1013E0007D02F0917E02808180688083E0917D02A1
:1013F000F0917E0280818F7D808362E08091250361
:101400000E9410012FB7F8948091670290916802B2
:10141000A0916902B0916A022FBF805D9740A10937
:10142000B1098093290390932A03A0932B03B093CF
:101430002C0387E3809332031092610210926002C2
:1014400010925F0210925E020E94DE0387EA92E031
:1014500090935D0280935C0288EA92E090935B0235
:1014600080935A021092190380911E03823018F063
:1014700098E09093190380931C0362E370E080E08E
:1014800090E00E94660160911F0384E193E00E9456
:10149000A30468EE73E080E090E00E94660160E3E0
:1014A00084E193E00E94DE05CBE4D6E4CE0101970F
:1014B000F1F760E384E193E00E94DE052197F1F704
:1014C00060E384E193E00E94DE0583E592E001970A
:1014D000F1F760E284E193E00E94DE056091190378
:1014E000606240E084E193E00E94F70584E080932D
:1014F0001A0340E06CE084E193E00E94F70540E0CD
:1015000061E084E193E00E94F705CBE3DFE1CE01E7
:101510000197F1F782E080931B0340E066E084E1ED
:1015200093E00E94F70540E062E084E193E00E94CE
:10153000F705CE010197F1F788E080931F0360E083
:1015400084E193E00E94A30461E086E00E94100120
:1015500061E085E00E94100161E084E00E941001DA
:1015600080E00E940E0684E491E00E948D0560ED0B
:1015700077E080E090E00E94660140E061E084E175
:1015800093E00E94F7052197F1F7C0E0D0E00E94B8
:101590009801882341F0809126038C3009F463C0C0
:1015A00048F48B3001F1C12CD12C90ECE92E9FE74F
:1015B000F92E43C085518230B0F710912203612F7C
:1015C00070E0762F662766277F7780912303682B4C
:1015D00090E080E00E94130D2DEC3CEC4CEC5DE3C0
:1015E0000E94CA0D5CC06091220370E090E080E030
:1015F0000E94130D6B017C011091230317FF0AC099
:10160000AC019B0160E070E080E89FEB0E94000C61
:101610006B017C011F70612F70E090E080E00E9400
:10162000150D2DEC3CEC4CEC5DE30E94CA0DA701BE
:1016300096010E94010C6B017C010E949801882395
:1016400009F464C0809126038B3030F08D3080F136
:101650008551823008F46CC0812C912C80ECA82E2E
:101660008FE7B82E43C010912203612F70E090E005
:1016700080E00E94130D6B017C01609123036F7069
:1016800070E090E080E00E94150D2DEC3CEC4CECFD
:101690005DE30E94CA0DA70196010E94010C6B0137
:1016A0007C0117FFCACFF7FAF094F7F8F094C5CF92
:1016B0006091210370E090E080E00E94150D2DEC18
:1016C0003CEC4CEC5DE30E94CA0D4B015C01609167
:1016D000200370E090E080E00E94150D9B01AC01BA
:1016E000C501B4010E94010C4B015C01A7019601E8
:1016F000C701B6010E94370E811108C0A5019401EF
:10170000C501B4010E94370E882321F180E00E94B8
:101710000E0687E591E00E948D05209709F437CFEA
:101720000E941303882309F432CF0E9400002FCFB8
:10173000609120037091210376276727762790E038
:1017400080E00E94130D2DEC3CEC4CEC5DE30E941C
:10175000CA0DCACF80E00E940E0688E691E00E9482
:101760008D0542E0C701B6010E9446068FE691E072
:101770000E948D0581E00E940E0685E791E00E949F
:101780008D0542E0C501B4010E94460680E891E063
:101790000E948D0520E030E040EF51E4C701B60122
:1017A0000E94C50D1816D4F461E086E00E94C400C2
:1017B00061E084E00E94C40060E085E00E94C40013
:1017C00082E00E940E0686E891E00E948D0560EDA1
:1017D00077E080E090E00E9466019FCF60E086E0C5
:1017E0000E94C40060E084E00E94C40061E085E0E3
:1017F0000E94C40082E00E940E0687E991E0E5CFD6
:101800005058BB27AA270E94180C0C948B0D0E94DD
:101810007D0D38F00E94840D20F039F49F3F19F4BB
:1018200026F40C947A0D0EF4E095E7FB0C94740DFD
:10183000E92F0E949C0D58F3BA17620773078407BB
:10184000950720F079F4A6F50C94BE0D0EF4E09502
:101850000B2EBA2FA02D0B01B90190010C01CA016A
:10186000A0011124FF27591B99F0593F50F4503E15
:1018700068F11A16F040A22F232F342F4427585F07
:10188000F3CF469537952795A795F0405395C9F71F
:101890007EF41F16BA0B620B730B840BBAF09150D7
:1018A000A1F0FF0FBB1F661F771F881FC2F70EC076
:1018B000BA0F621F731F841F48F487957795679549
:1018C000B795F7959E3F08F0B0CF9395880F08F035
:1018D0009927EE0F9795879508950E94500D08F46B
:1018E00081E008950E94860C0C948B0D0E94840D5B
:1018F00058F00E947D0D40F029F45F3F29F00C94D0
:10190000740D51110C94BF0D0C947A0D0E949C0D16
:1019100068F39923B1F3552391F3951B550BBB271E
:10192000AA2762177307840738F09F5F5F4F220F63
:10193000331F441FAA1FA9F335D00E2E3AF0E0E85A
:1019400032D091505040E695001CCAF72BD0FE2FA4
:1019500029D0660F771F881FBB1F26173707480738
:10196000AB07B0E809F0BB0B802DBF01FF279358F0
:101970005F4F3AF09E3F510578F00C94740D0C9433
:10198000BF0D5F3FE4F3983ED4F386957795679556
:10199000B795F7959F5FC9F7880F911D9695879525
:1019A00097F90895E1E0660F771F881FBB1F621744
:1019B00073078407BA0720F0621B730B840BBA0B02
:1019C000EE1F88F7E09508950E94A40D88F09F57B8
:1019D00098F0B92F9927B751B0F0E1F0660F771F53
:1019E000881F991F1AF0BA95C9F714C0B13091F049
:1019F0000E94BE0DB1E008950C94BE0D672F782FA4
:101A00008827B85F39F0B93FCCF38695779567950D
:101A1000B395D9F73EF490958095709561957F4F79
:101A20008F4F9F4F0895E89409C097FB3EF490951F
:101A30008095709561957F4F8F4F9F4F9923A9F0A7
:101A4000F92F96E9BB279395F69587957795679536
:101A5000B795F111F8CFFAF4BB0F11F460FF1BC07A
:101A60006F5F7F4F8F4F9F4F16C0882311F096E90D
:101A700011C0772321F09EE8872F762F05C06623BB
:101A800071F096E8862F70E060E02AF09A95660F74
:101A9000771F881FDAF7880F9695879597F908952D
:101AA000990F0008550FAA0BE0E8FEEF161617066F
:101AB000E807F907C0F012161306E407F50798F0D7
:101AC000621B730B840B950B39F40A2661F0232BF0
:101AD000242B252B21F408950A2609F4A140A6956C
:101AE0008FEF811D811D089597F99F6780E870E051
:101AF00060E008959FEF80EC089500240A94161684
:101B0000170618060906089500240A9412161306EB
:101B1000140605060895092E0394000C11F4882379
:101B200052F0BB0F40F4BF2B11F460FF04C06F5F95
:101B30007F4F8F4F9F4F089557FD9058440F551F6B
:101B400059F05F3F71F04795880F97FB991F61F03F
:101B50009F3F79F087950895121613061406551FB6
:101B6000F2CF4695F1DF08C0161617061806991F22
:101B7000F1CF86957105610508940895E894BB2717
:101B800066277727CB0197F908950E94500D08F436
:101B90008FEF08950E94DD0D0C948B0D0E947D0D3A
:101BA00038F00E94840D20F0952311F00C94740DF0
:101BB0000C947A0D11240C94BF0D0E949C0D70F3AF
:101BC000959FC1F3950F50E0551F629FF001729FE2
:101BD000BB27F00DB11D639FAA27F00DB11DAA1FF1
:101BE000649F6627B00DA11D661F829F2227B00D3E
:101BF000A11D621F739FB00DA11D621F839FA00DC9
:101C0000611D221F749F3327A00D611D231F849F18
:101C1000600D211D822F762F6A2F11249F5750406F
:101C20009AF0F1F088234AF0EE0FFF1FBB1F661FEA
:101C3000771F881F91505040A9F79E3F510580F0B3
:101C40000C94740D0C94BF0D5F3FE4F3983ED4F3F5
:101C5000869577956795B795F795E7959F5FC1F757
:101C6000FE2B880F911D9695879597F908950E94F0
:101C7000500D880B990B0895A1E21A2EAA1BBB1BCD
:101C8000FD010DC0AA1FBB1FEE1FFF1FA217B30748
:101C9000E407F50720F0A21BB30BE40BF50B661F5E
:101CA000771F881F991F1A9469F760957095809522
:101CB00090959B01AC01BD01CF010895EE0FFF1F70
:0C1CC0000590F491E02D0994F894FFCFFA
:101CCC000000400014005400000000004903A90269
:101CDC00D60296030703E502F90200000000740423
:101CEC0047048A051D0440042D041E040000000056
:101CFC004006A9028A05B6036E616E00696E660025
:101D0C006F76660053797374656D205374617274C9
:101D1C00696E672E2E2E0053656E736F722045729E
:101D2C00726F72212020200054656D703A200020C3
:101D3C00432020200048756D69646974793A20004D
:101D4C002025202020005374617475733A20484F6D
:101D5C00542020202020005374617475733A204E57
:081D6C004F524D414C202000B4
:00000001FF
